{
  "_format": "hh-sol-artifact-1",
  "contractName": "MobulaGovernor",
  "sourceName": "contracts/MobulaGovernor.sol",
  "abi": [
    {
      "inputs": [
        {
          "internalType": "address",
          "name": "_mobulaTokenAddress",
          "type": "address"
        }
      ],
      "stateMutability": "nonpayable",
      "type": "constructor"
    },
    {
      "inputs": [
        {
          "internalType": "string",
          "name": "name",
          "type": "string"
        }
      ],
      "name": "createProposal",
      "outputs": [],
      "stateMutability": "nonpayable",
      "type": "function"
    },
    {
      "inputs": [
        {
          "internalType": "uint256",
          "name": "_amount",
          "type": "uint256"
        }
      ],
      "name": "deposit",
      "outputs": [],
      "stateMutability": "nonpayable",
      "type": "function"
    },
    {
      "inputs": [
        {
          "internalType": "uint256",
          "name": "top",
          "type": "uint256"
        }
      ],
      "name": "getLiveProposals",
      "outputs": [
        {
          "components": [
            {
              "internalType": "uint256",
              "name": "id",
              "type": "uint256"
            },
            {
              "internalType": "address",
              "name": "author",
              "type": "address"
            },
            {
              "internalType": "string",
              "name": "name",
              "type": "string"
            },
            {
              "internalType": "uint256",
              "name": "createdAt",
              "type": "uint256"
            },
            {
              "internalType": "uint256",
              "name": "votesForYes",
              "type": "uint256"
            },
            {
              "internalType": "uint256",
              "name": "votesForNo",
              "type": "uint256"
            },
            {
              "internalType": "enum MobulaGovernor.Status",
              "name": "status",
              "type": "uint8"
            }
          ],
          "internalType": "struct MobulaGovernor.Proposal[]",
          "name": "",
          "type": "tuple[]"
        }
      ],
      "stateMutability": "view",
      "type": "function"
    },
    {
      "inputs": [
        {
          "internalType": "address",
          "name": "",
          "type": "address"
        }
      ],
      "name": "lastVote",
      "outputs": [
        {
          "internalType": "uint256",
          "name": "",
          "type": "uint256"
        }
      ],
      "stateMutability": "view",
      "type": "function"
    },
    {
      "inputs": [],
      "name": "nextProposalId",
      "outputs": [
        {
          "internalType": "uint256",
          "name": "",
          "type": "uint256"
        }
      ],
      "stateMutability": "view",
      "type": "function"
    },
    {
      "inputs": [
        {
          "internalType": "uint256",
          "name": "",
          "type": "uint256"
        }
      ],
      "name": "proposals",
      "outputs": [
        {
          "internalType": "uint256",
          "name": "id",
          "type": "uint256"
        },
        {
          "internalType": "address",
          "name": "author",
          "type": "address"
        },
        {
          "internalType": "string",
          "name": "name",
          "type": "string"
        },
        {
          "internalType": "uint256",
          "name": "createdAt",
          "type": "uint256"
        },
        {
          "internalType": "uint256",
          "name": "votesForYes",
          "type": "uint256"
        },
        {
          "internalType": "uint256",
          "name": "votesForNo",
          "type": "uint256"
        },
        {
          "internalType": "enum MobulaGovernor.Status",
          "name": "status",
          "type": "uint8"
        }
      ],
      "stateMutability": "view",
      "type": "function"
    },
    {
      "inputs": [
        {
          "internalType": "address",
          "name": "",
          "type": "address"
        }
      ],
      "name": "shares",
      "outputs": [
        {
          "internalType": "uint256",
          "name": "",
          "type": "uint256"
        }
      ],
      "stateMutability": "view",
      "type": "function"
    },
    {
      "inputs": [],
      "name": "token",
      "outputs": [
        {
          "internalType": "contract IERC20",
          "name": "",
          "type": "address"
        }
      ],
      "stateMutability": "view",
      "type": "function"
    },
    {
      "inputs": [],
      "name": "totalShares",
      "outputs": [
        {
          "internalType": "uint256",
          "name": "",
          "type": "uint256"
        }
      ],
      "stateMutability": "view",
      "type": "function"
    },
    {
      "inputs": [
        {
          "internalType": "uint256",
          "name": "_proposalId",
          "type": "uint256"
        },
        {
          "internalType": "enum MobulaGovernor.VotingOptions",
          "name": "_vote",
          "type": "uint8"
        }
      ],
      "name": "vote",
      "outputs": [],
      "stateMutability": "nonpayable",
      "type": "function"
    },
    {
      "inputs": [
        {
          "internalType": "address",
          "name": "",
          "type": "address"
        },
        {
          "internalType": "uint256",
          "name": "",
          "type": "uint256"
        }
      ],
      "name": "votes",
      "outputs": [
        {
          "internalType": "bool",
          "name": "",
          "type": "bool"
        }
      ],
      "stateMutability": "view",
      "type": "function"
    },
    {
      "inputs": [
        {
          "internalType": "uint256",
          "name": "_amount",
          "type": "uint256"
        }
      ],
      "name": "withdraw",
      "outputs": [],
      "stateMutability": "nonpayable",
      "type": "function"
    }
  ],
  "bytecode": "0x608060405234801561001057600080fd5b5060405161120c38038061120c83398101604081905261002f91610054565b600680546001600160a01b0319166001600160a01b0392909216919091179055610082565b600060208284031215610065578081fd5b81516001600160a01b038116811461007b578182fd5b9392505050565b61117b806100916000396000f3fe608060405234801561001057600080fd5b50600436106100b45760003560e01c8063943e821611610071578063943e8216146101505780639f2524ee14610163578063b6b55f25146101a1578063b9dd2d40146101b4578063ce7c2ac2146101d4578063fc0c546a146101f457600080fd5b8063013cf08b146100b95780632ab09d14146100e85780632e1a7d4d146100ff5780633a98ef391461011457806349c2a1a61461011d5780636accc8cf14610130575b600080fd5b6100cc6100c7366004610e71565b61021f565b6040516100df9796959493929190610fe7565b60405180910390f35b6100f160055481565b6040519081526020016100df565b61011261010d366004610e71565b6102f0565b005b6100f160045481565b61011261012b366004610dc7565b6104c8565b6100f161013e366004610d5d565b60036020526000908152604090205481565b61011261015e366004610e89565b610644565b610191610171366004610d7e565b600160209081526000928352604080842090915290825290205460ff1681565b60405190151581526020016100df565b6101126101af366004610e71565b61082f565b6101c76101c2366004610e71565b6108a9565b6040516100df9190610f28565b6100f16101e2366004610d5d565b60026020526000908152604090205481565b600654610207906001600160a01b031681565b6040516001600160a01b0390911681526020016100df565b60006020819052908152604090208054600182015460028301805492936001600160a01b0390921692610251906110c3565b80601f016020809104026020016040519081016040528092919081815260200182805461027d906110c3565b80156102ca5780601f1061029f576101008083540402835291602001916102ca565b820191906000526020600020905b8154815290600101906020018083116102ad57829003601f168201915b505050506003830154600484015460058501546006909501549394919390925060ff1687565b3360009081526002602052604090205481111561036e5760405162461bcd60e51b815260206004820152603160248201527f596f752063616e6e6f74207769746864726177206d6f7265207468616e20776860448201527030ba103cb7ba903232b837b9b4ba32b21760791b60648201526084015b60405180910390fd5b33600090815260036020526040902054429061038e906203f4809061103e565b11156104025760405162461bcd60e51b815260206004820152603960248201527f596f75206e65656420746f20776169742033206461797320616674657220796f60448201527f7572206c61737420766f746520746f2077697468647261772e000000000000006064820152608401610365565b3360009081526002602052604081208054839290610421908490611095565b92505081905550806004600082825461043a9190611095565b909155505060065460405163a9059cbb60e01b8152336004820152602481018390526001600160a01b039091169063a9059cbb906044015b602060405180830381600087803b15801561048c57600080fd5b505af11580156104a0573d6000803e3d6000fd5b505050506040513d601f19601f820116820180604052508101906104c49190610da7565b5050565b3360009081526002602052604090205469152d02c7e14af6800000111561054c5760405162461bcd60e51b815260206004820152603260248201527f596f7520646f206e6f74206861766520656e6f75676820244d4f424c20746f2060448201527131b932b0ba32903090383937b837b9b0b61760711b6064820152608401610365565b6040805160e081018252600554815233602082015290810182905242606082015260006080820181905260a082015260c08101600290526005546000908152602081815260409182902083518155838201516001820180546001600160a01b0319166001600160a01b039092169190911790559183015180516105d59260028501920190610c44565b50606082015160038201556080820151600482015560a0820151600582015560c082015160068201805460ff1916600183600281111561062557634e487b7160e01b600052602160045260246000fd5b021790555050600580549150600061063c836110fe565b919050555050565b600082815260208181526040808320338452600183528184208685529092529091205460ff16156106b05760405162461bcd60e51b81526020600482015260166024820152752cb7ba9031b0b73737ba103b37ba32903a3bb4b1b29760511b6044820152606401610365565b6203f48081600301546106c3919061103e565b4211156107125760405162461bcd60e51b815260206004820152601a60248201527f54686520766f74696e6720706572696f64206973206f7665722e0000000000006044820152606401610365565b33600090815260036020908152604080832042905560018083528184208785529092528220805460ff191682179055839081111561076057634e487b7160e01b600052602160045260246000fd5b14156107ca57336000908152600260205260408120546004830180549192909161078b90849061103e565b925050819055506032600454826004015460646107a89190611076565b6107b29190611056565b11156107c55760068101805460ff191690555b505050565b33600090815260026020526040812054600583018054919290916107ef90849061103e565b909155505060045460058201546032919061080b906064611076565b6108159190611056565b11156107c55760068101805460ff19166001179055505050565b336000908152600260205260408120805483929061084e90849061103e565b925050819055508060046000828254610867919061103e565b90915550506006546040516323b872dd60e01b8152336004820152306024820152604481018390526001600160a01b03909116906323b872dd90606401610472565b606060008267ffffffffffffffff8111156108d457634e487b7160e01b600052604160045260246000fd5b60405190808252806020026020018201604052801561090d57816020015b6108fa610cc8565b8152602001906001900390816108f25790505b509050600060016005546109219190611095565b600081815260208181526040808320815160e0810183528154815260018201546001600160a01b0316938101939093526002810180549596509394929390929184019161096d906110c3565b80601f0160208091040260200160405190810160405280929190818152602001828054610999906110c3565b80156109e65780601f106109bb576101008083540402835291602001916109e6565b820191906000526020600020905b8154815290600101906020018083116109c957829003601f168201915b5050509183525050600382015460208201526004820154604082015260058201546060820152600682015460809091019060ff166002811115610a3957634e487b7160e01b600052602160045260246000fd5b6002811115610a5857634e487b7160e01b600052602160045260246000fd5b90525090505b6203f4808160600151610a71919061103e565b4211158015610a7e575060015b8015610aa05750610a9085600161103e565b82600554610a9e9190611095565b105b15610c3b5760008281526020818152604091829020825160e0810184528154815260018201546001600160a01b0316928101929092526002810180549293919291840191610aed906110c3565b80601f0160208091040260200160405190810160405280929190818152602001828054610b19906110c3565b8015610b665780601f10610b3b57610100808354040283529160200191610b66565b820191906000526020600020905b815481529060010190602001808311610b4957829003601f168201915b5050509183525050600382015460208201526004820154604082015260058201546060820152600682015460809091019060ff166002811115610bb957634e487b7160e01b600052602160045260246000fd5b6002811115610bd857634e487b7160e01b600052602160045260246000fd5b8152505090508083600184600554610bf09190611095565b610bfa9190611095565b81518110610c1857634e487b7160e01b600052603260045260246000fd5b60209081029190910101528115610c3b5781610c33816110ac565b925050610a5e565b50909392505050565b828054610c50906110c3565b90600052602060002090601f016020900481019282610c725760008555610cb8565b82601f10610c8b57805160ff1916838001178555610cb8565b82800160010185558215610cb8579182015b82811115610cb8578251825591602001919060010190610c9d565b50610cc4929150610d2c565b5090565b6040518060e001604052806000815260200160006001600160a01b031681526020016060815260200160008152602001600081526020016000815260200160006002811115610d2757634e487b7160e01b600052602160045260246000fd5b905290565b5b80821115610cc45760008155600101610d2d565b80356001600160a01b0381168114610d5857600080fd5b919050565b600060208284031215610d6e578081fd5b610d7782610d41565b9392505050565b60008060408385031215610d90578081fd5b610d9983610d41565b946020939093013593505050565b600060208284031215610db8578081fd5b81518015158114610d77578182fd5b600060208284031215610dd8578081fd5b813567ffffffffffffffff80821115610def578283fd5b818401915084601f830112610e02578283fd5b813581811115610e1457610e1461112f565b604051601f8201601f19908116603f01168101908382118183101715610e3c57610e3c61112f565b81604052828152876020848701011115610e54578586fd5b826020860160208301379182016020019490945295945050505050565b600060208284031215610e82578081fd5b5035919050565b60008060408385031215610e9b578182fd5b82359150602083013560028110610eb0578182fd5b809150509250929050565b60038110610ed957634e487b7160e01b600052602160045260246000fd5b9052565b60008151808452815b81811015610f0257602081850181015186830182015201610ee6565b81811115610f135782602083870101525b50601f01601f19169290920160200192915050565b60006020808301818452808551808352604092508286019150828160051b870101848801865b83811015610fd957888303603f19018552815180518452878101516001600160a01b0316888501528681015160e088860181905290610f8f82870182610edd565b606084810151908801526080808501519088015260a0808501519088015260c093840151939092509050610fc581870184610ebb565b509588019593505090860190600101610f4e565b509098975050505050505050565b8781526001600160a01b038716602082015260e06040820181905260009061101190830188610edd565b90508560608301528460808301528360a083015261103260c0830184610ebb565b98975050505050505050565b6000821982111561105157611051611119565b500190565b60008261107157634e487b7160e01b81526012600452602481fd5b500490565b600081600019048311821515161561109057611090611119565b500290565b6000828210156110a7576110a7611119565b500390565b6000816110bb576110bb611119565b506000190190565b600181811c908216806110d757607f821691505b602082108114156110f857634e487b7160e01b600052602260045260246000fd5b50919050565b600060001982141561111257611112611119565b5060010190565b634e487b7160e01b600052601160045260246000fd5b634e487b7160e01b600052604160045260246000fdfea26469706673582212205947251e1d14026077b65422c0e8b501b3aac7f3193144705ba69d1e5fbd330964736f6c63430008040033",
  "linkReferences": {},
  "deployedLinkReferences": {}
}